:100000000C942A000C9443040C946C040C949504F6
:100010000C9447000C9447000C9447000C94470044
:100020000C9447000C9447000C9447000C94470034
:100030000C9447000C9447000C9447000C94470024
:100040000C9447000C9447000C9447000C94470014
:100050000C94470011241FBECFE5D8E0DEBFCDBF12
:1000600010E0A0E6B0E0EAE6FAE002C005900D92EA
:10007000A837B107D9F720E0A8E7B0E001C01D928A
:10008000AE38B207E1F70E9486010C9433050C9458
:1000900000006BE870E082E00E946E0280918B00AD
:1000A00081110BC080917A00811107C081E080939B
:1000B0007A008CE380938C00089580917A008130DF
:1000C00061F410927B0080918C00833219F480934C
:1000D0008C000895855080938C0008956DE870E041
:1000E00081E00E946E0280918D008130C9F4809180
:1000F0007A00811107C081E080937A008CE38093BD
:100100008C000895813061F480918C008B3419F457
:1001100080938C0003C08B5F80938C0010927B00D7
:10012000089580E00E94560281E00E94560282E01B
:100130000E94560280E00E94860281E00E948602B0
:100140000E942203789480E00E94F9010E948B01B2
:100150000E94D60143E068E670E080E00E94BE04A1
:1001600080E00E94000481E00E9400044EE650E01E
:1001700062E080E00E94120449E450E062E081E025
:100180000E941204089580917900813021F480E06A
:100190000E944102089580917800813021F480E02E
:1001A0000E941102089580E00E94290208951F9381
:1001B000CF93DF931F92CDB7DEB7182F6983CE019F
:1001C00001960E942D034DC069E870E080E00E9416
:1001D0006E0280918900813099F5CE0101960E94CE
:1001E0002D03812F90E02981821B91098530910593
:1001F00064F00E94F3010E94E1011092780081E016
:10020000809379000E94C30017C08C3F9F4F64F415
:10021000109279000E94ED010E94E70181E0809335
:1002200078000E94C30008C00E94F3010E94ED0103
:1002300080E00E94290218C089810E94F10211C049
:100240004CE850E06AE080E00E94AD010E94F301BA
:100250000E94ED0180E00E9429026981812F0E94A5
:10026000D70089818113B0CF0F90DF91CF911F917B
:100270000895CF9340918C006AE080E00E948E0147
:1002800069E870E080E00E946E0280918900813010
:10029000A9F580917A00813081F027C080918C008F
:1002A0000E94F1022FE38DE093E0215080409040C6
:1002B000E1F700C00000CF5F01C0C0E0CA3070F3BA
:1002C00080917B008F5F80937B008530E9F46091A3
:1002D0008A0080918C000E94D70010927B001092BF
:1002E0007A008CE380938C000FC08AE890E00E9433
:1002F0002D0380918A000E94F10206C080E00E94D6
:10030000BF0281E00E94BF02CF9108950E94910038
:100310000E943901FDCF0E94EA040895CF93DF9334
:10032000D62FC42F60E080650E94EE048D2F0E94BE
:10033000090583EC99E00197F1F700C000008C2FCC
:100340000E94090583EC99E00197F1F700C00000D5
:100350000E940305DF91CF9108950F931F93CF93D0
:10036000DF93D62F8A01C82FC06560E08C2F0E94D2
:10037000EE048D2F0E94090583EC99E00197F1F7B7
:1003800000C0000061E08C2F0E94EE04C8010E94B2
:10039000100583EC99E00197F1F700C000000E947E
:1003A0000305DF91CF911F910F91089542E061E025
:1003B00083E00E94870342E062E083E00E948703BB
:1003C000089541E062E083E00E94C003089541E0A7
:1003D00061E083E00E94C003089540E062E083E0B2
:1003E0000E94C003089540E061E083E00E94C003E2
:1003F0000895813051F018F0823069F0089542E09C
:1004000064E082E00E948703089542E060E882E0B1
:100410000E948703089542E068E083E00E9487031A
:100420000895813051F018F0823069F0089541E06C
:1004300064E082E00E94C003089541E060E882E049
:100440000E94C003089541E068E083E00E94C00379
:100450000895813051F018F0823069F0089540E03D
:1004600064E082E00E94C003089540E060E882E01A
:100470000E94C003089540E068E083E00E94C0034A
:100480000895813049F018F0823059F0089564E001
:1004900082E00E94E003089560E882E00E94E003A9
:1004A000089568E083E00E94E0030895813051F0F0
:1004B00018F0823069F0089540E064E081E00E9425
:1004C0008703089540E064E083E00E948703089575
:1004D00040E068E083E00E9487030895813051F096
:1004E00018F0823069F00895AB0164E081E00E9469
:1004F000ED030895AB0164E083E00E94ED030895ED
:10050000AB0168E083E00E94ED030895CF93C82F0C
:1005100042E060E180E00E94870342E060E280E028
:100520000E94870342E060E480E00E94870342E08B
:1005300060E880E00E948703CC2319F0C13039F0D5
:100540000BC042E060E181E00E94870305C042E009
:1005500060E281E00E948703CF910895882319F01B
:10056000813039F0089541E060E181E00E94C003EC
:10057000089541E060E281E00E94C003089588236D
:1005800019F0813039F0089540E060E181E00E9487
:10059000C003089540E060E281E00E94C003089536
:1005A000CF938A30E0F4C82F482F417060E180E09B
:1005B0000E94C003C1FB442740F960E280E00E9432
:1005C000C003C2FB442740F960E480E00E94C003FE
:1005D000C3FB442740F960E880E00E94C003CF914C
:1005E0000895CF93DF93D82F80E00E94AE02CDEC28
:1005F000DC9FC12D1124C695C695C6958C2F0E94EF
:10060000D00287EA91E60197F1F700C0000080E090
:100610000E94BF0281E00E94AE02CC0F8C2F880F97
:10062000880FC80F8D2F8C1B0E94D00287EA91E69D
:100630000197F1F700C0000081E00E94BF02DF9146
:10064000CF91089544E060E081E00E94560340E0CD
:1006500061E080E00E9487030895CF93DF93EC016F
:100660006CE770E080E00E94630320917C00309191
:100670007D0040917E0050917F00A4EFB1E00E9488
:100680002805DC01CB01072E7AE0B695A795979552
:1006900087957A95D1F7702D888387EA91E601973F
:1006A000F1F700C00000DF91CF91089520E4829F10
:1006B000C001112420E2629FB0011124682B67B9A8
:1006C000406846B9089597B1907E97B997B1892B44
:1006D00087B986B1806486B9349BFECF86B18061CC
:1006E00086B93D9B0AC085B190E0A0E0B0E0FB0177
:1006F00080839183A283B383089584B195B1A0E0F0
:10070000B0E0FB0180839183A283B38308954130DD
:1007100091F018F0423039F10895E82FF0E0EE0F33
:10072000FF1FE059FF4F0190F081E02D808160951F
:1007300068236083089590E0880F991FFC01E059B9
:10074000FF4F0190F081E02D2081362F309523233B
:100750002083FC01E859FF4F0190F081E02D80815A
:10076000682B60830895E82FF0E0EE0FFF1FE0593B
:10077000FF4F0190F081E02D8081682B6083089508
:10078000442319F0413079F00895E82FF0E0EE0F9E
:10079000FF1FE859FF4F0190F081E02D80816095A7
:1007A000682360830895E82FF0E0EE0FFF1FE859FB
:1007B000FF4F0190F081E02D8081682B60830895C8
:1007C000E82FF0E0EE0FFF1FE859FF4F0190F08196
:1007D000E02D8081682760830895E82FF0E0EE0F18
:1007E000FF1FE05AFF4F0190F081E02D80816823C8
:1007F00019F4FA011082089581E0FA0180830895C6
:10080000813041F018F0823049F008958BB7806450
:100810008BBF08958BB780688BBF08958BB78062BC
:100820008BBF0895813079F018F08230E1F008959F
:1008300085B78C7F85BF85B7682B65BF50938500D2
:1008400040938400089585B7837F85BF85B770E0A6
:10085000660F771F660F771F682B65BF5093830065
:10086000409382000895633021F484B7806484BF8C
:1008700005C0623019F484B78F7B84BF5093810028
:100880004093800008951F920F920FB60F9211248B
:100890002F933F934F935F936F937F938F939F9388
:1008A000AF93BF93EF93FF93E0918400F0918500A5
:1008B000309709F00995FF91EF91BF91AF919F910A
:1008C0008F917F916F915F914F913F912F910F90F9
:1008D0000FBE0F901F9018951F920F920FB60F9298
:1008E00011242F933F934F935F936F937F938F9335
:1008F0009F93AF93BF93EF93FF93E0918200F091AA
:100900008300309709F00995FF91EF91BF91AF9166
:100910009F918F917F916F915F914F913F912F9117
:100920000F900FBE0F901F9018951F920F920FB649
:100930000F9211242F933F934F935F936F937F9365
:100940008F939F93AF93BF93EF93FF93E0918000BA
:10095000F0918100309709F00995FF91EF91BF91D7
:10096000AF919F918F917F916F915F914F913F9147
:100970002F910F900FBE0F901F901895813081F02E
:1009800018F08230D9F008956836710529F44333A0
:1009900018F0425360E670E063BF4093880008950A
:1009A000683081E8780729F4433318F0425360E057
:1009B00071E87FBD6EBD409387000895683671056C
:1009C00029F4433318F0425360E670E065BD40936C
:1009D0008600089588E480B911B8089594EA96BF16
:1009E00091B1987F983021F091B1987F9031C1F703
:1009F00090E0880F991F862B83B984E886BF06B6DE
:100A000007FEFDCF089584E986BF06B604FCFDCF3E
:100A1000089583B984E886BF06B607FEFDCF089522
:100A200024E826BF06B607FEFDCF23B1FC012083D4
:100A30000895A29FB001B39FC001A39F700D811DB7
:100A40001124911DB29F700D811D1124911D0895D7
:100A50000E941905A59F900DB49F900DA49F800D35
:0A0A6000911D11240895F894FFCFB2
:100A6A0039003600330030003B00380035003200D0
:080A7A003A003700340031009E
:00000001FF
